:040000000200833245
:01000B0032C2
:0100130032BA
:01001B0032B2
:0100230032AA
:01002B0032A2
:01003300329A
:01003B003292
:01004300328A
:01004B003282
:01005300327A
:01005B003272
:01006300326A
:01006B003262
:01007300325A
:03007B000211422D
:0300DC0002007EA1
:05007E00120D2780FEB9
:1000DF0085822BC284758200120F1730016CE52BBD
:1000EF0075F008A42400FB74F035F0FC74072BF5B1
:1000FF0082E43CF583E0FDFE7F00A8287900EEC383
:10010F0098FEEF99FFC3E49E74808FF063F08095A3
:10011F00F05007EDC39528FD80027D0074062BF586
:10012F0082E43CF583E0FBFC7E00C398F8EE99F97E
:10013F00C3E498748089F063F08095F05007EBC3A7
:10014F009528FB80027B00020207E52B75F008A4BF
:10015F002400FC74F035F0FE74062CF582E43EF5B5
:10016F0083E0FF780085282C752D00EFC3952CF9BF
:10017F00E8952DA2E713C913C9A2E713C913C9FA4A
:10018F00C3E49974808AF063F08095F05018EFC340
:10019F00952CFFE8952DF8A2E713CF13CFA2E71305
:1001AF00CF13CFFA80047F007A008F0374072CF5EA
:1001BF0082E43EF583E0FA7C00C3952CFEEC952D8E
:1001CF00A2E713CE13CEA2E713CE13CEFFC3E49E46
:1001DF0074808FF063F08095F05017EAC3952CFA76
:1001EF00EC952DA2E713CA13CAA2E713CA13CAFCD0
:1001FF0080047A007C008A057A00BA060040030268
:10020F0002CD7405C39AF582852B08C002C003C0C6
:10021F0005120EF4D005D003D002EAC40354F8FC43
:10022F00EBC39CFC8A067F000EBE00010FEFC403D8
:10023F0054F8CEC403CE6ECE54F8CE6EFF8B007939
:10024F0000C3E89EE964808FF063F08095F0400270
:10025F007C087408C39CF5F005F074FF800225E05C
:10026F00D5F0FBFC8A067F000EBE00010FEFC40322
:10027F0054F8CEC403CE6ECE54F8CE6EFF8D0079F7
:10028F0000C3EE98EF648089F063F08095F0401919
:10029F00EA04C40354F8FEC39DF5F005F074018021
:1002AF000225E0D5F0FBFE42048C82C002C003C0E1
:1002BF0005120E8DD005D003D0020A020209D28496
:1002CF00227A00C2847401B5270280077402B52711
:1002DF00478024750800758206120EF47B00BB84DC
:1002EF0000400302036FEB901B3A93F582C0031299
:1002FF000E8DD0030B80E7750800758206120EF481
:10030F007B00BB84005059EB901C5B93F582C003BC
:10031F00120E8DD0030B80EA750E0A750F00852221
:10032F0082852383C002121419E5828583F0D002DF
:10033F0045F060027A19750800758206C002120E28
:10034F00F4D0027B00BB84005016EA2B901BBE93A7
:10035F00F582C002C003120E8DD003D0020B80E5D0
:10036F00D28422C2847401B52702800B7402B52790
:10037F0003020402020458750812758207120EF464
:10038F00E52224FEFAE52334FFFBC002C00374DF2D
:10039F00C0E0741CC0E07480C0E01214D9E5812461
:1003AF00FBF58175083A758207120EF4C022C0233F
:1003BF0074DFC0E0741CC0E07480C0E01214D9E593
:1003CF008124FBF581750862758207120EF47402A1
:1003DF002522FAE43523FBC002C00374DFC0E074AA
:1003EF001CC0E07480C0E01214D9E58124FBF581B4
:1003FF000204D175080D758207120EF4741E2522A2
:10040F00FAE43523FB740A2522FCE43523FDE522AB
:10041F0024F6FEE52334FFFFE52224E2F8E523343A
:10042F00FFF9C002C003C004C005C006C007C0006A
:10043F00C00174E2C0E0741CC0E07480C0E012140C
:10044F00D9E58124F5F58180797508087582071241
:10045F000EF4E52224F6FAE52334FFFBC002C003B5
:10046F0074DFC0E0741CC0E07480C0E01214D9E5E2
:10047F008124FBF58175083A758207120EF4C022AC
:10048F00C02374DFC0E0741CC0E07480C0E012149D
:10049F00D9E58124FBF58175086C758207120EF47E
:1004AF00740A2522FAE43523FBC002C00374DFC0AF
:1004BF00E0741CC0E07480C0E01214D9E58124FB05
:1004CF00F581D2842290DF077412F090DF08E4F0F8
:1004DF0090DF17E044C0F090DF1C74EAF090DF1D4E
:1004EF00742AF090DF1EE4F090DF1F741FF090DF8E
:1004FF00237488F090DF247431F090DF257409F0B5
:10050F0090DF14E4F0227401B5270280077402B55E
:10051F002710800790DF0C74ECF02290DF0C740C26
:10052F00F02290DF0C746CF022AA82AB83ACF0FD4A
:10053F00C002C003C004C005121342AE82AF83A82D
:10054F00F0F9C006C007C000C0019030E975F02572
:10055F00743B121248AE82AF83A8F0F9E58124FCF8
:10056F00F5818E828F8388F0E9121355AE82AF83A7
:10057F00A8F0D005D004D003D00290DF09E8F090A6
:10058F00DF0AEFF07F007800790090DF0BEEF0E5E7
:10059F0026700FC3EA9480EB944BEC94F4ED941215
:1005AF0040227401B5260CC3EB94BAEC9445ED943C
:1005BF001940117402B52613C3EB9474EC948BEDB0
:1005CF009432500790DF1D740AF02290DF1D742AB9
:1005DF00F02212053875E10175E102900002120E4A
:1005EF002FE52E75F008A4FAABF0EA2400FCEB34EB
:1005FF00F0FD90DF09E08C828D83F0EA2400FAEBA6
:10060F0034F0FB74012AFCE43BFD90DF0AE08C829E
:10061F008D83F074022AFCE43BFD90DF0BE08C82AB
:10062F008D83F074032AFCE43BFD90DF1CE08C8289
:10063F008D83F074042AFCE43BFD90DF1DE08C8277
:10064F008D83F074052AFCE43BFD90DF1EE08C8265
:10065F008D83F074062AFCE43BFD90DF3AE0FE63E5
:10066F0006808C828D83EEF074072AF582E43BF5C9
:10067F0083E4F075E1042285822F8583307401B500
:10068F00270280077402B5274F8013753E03753F0D
:10069F00017532447533C3E4F534F535806F753E1B
:1006AF002A753F1475328875332B75340A753500EA
:1006BF00740A252FF582E43530F583750E14750F06
:1006CF000012121F85820E85830F90001412138E55
:1006DF0085822F8583308035753E0D753F057532C8
:1006EF001075330D753403753500852F8285308372
:1006FF00A3A3750E05750F0012121F85820E858339
:10070F000F90000512138E85822F858330C3746777
:10071F00952F74029530400302086C753102AC3E80
:10072F007D0074C2C39CFE74039DFFE53FC313F8A5
:10073F0079002EF582E93FF583AE3F7F008E0E8F55
:10074F000FC004C005C006C007C000C001121ABB0D
:10075F00AA82AB83D001D000D007D0068E0E8F0FA8
:10076F008A828B83C006C007C000C00112138E851A
:10077F008240858341D001D000D007D006D005D06C
:10078F000474ED2CF58274023DF5838E0E8F0FC02D
:10079F0004C005C006C007C000C001121ABBAA8260
:1007AF00AB83D001D000D007D0068E0E8F0F8A8278
:1007BF008B83C006C007C000C00112138E85824212
:1007CF00858343D001D000D007D006D005D0047464
:1007DF00192CF58274013DF5838E0E8F0FC004C066
:1007EF0005C006C007C000C001121ABBAA82AB83A6
:1007FF00D001D000D007D0068E0E8F0F8A828B8348
:10080F00C006C007C000C00112138EAA82AB83D0EE
:10081F0001D000D007D006D005D00474E1C39CFCF2
:10082F0074019DFDE82CF582E93DF5838E0E8F0F47
:10083F00C002C003C006C007121ABBAC82AD83D082
:10084F0007D0068E0E8F0F8C828D8312138EAC8283
:10085F00AD83D003D0027E007F01020A0BC37471F7
:10086F00952F740195304003020944753101853E7F
:10087F004475450074E1C39544F54674019545F5FB
:10088F0047E53FC313F88848754900E5482546F505
:10089F0082E5493547F583853F4675470085460E06
:1008AF0085470F121ABB85460E85470F12138E858B
:1008BF008240858341747A2544F58274013545F56C
:1008CF008385460E85470F121ABB85460E85470F47
:1008DF0012138E85824285834374ED2544F582740D
:1008EF00023545F58385460E85470F121ABB85469F
:1008FF000E85470F12138EAA82AB837469C395447A
:10090F00F874019545F9E54828F582E54939F583ED
:10091F0085460E85470FC002C003121ABB85460ECF
:10092F0085470F12138EAC82AD83D003D0027E02A7
:10093F007F00020A0B753100853E487549007469C6
:10094F00C39548F54674019549F547E53FC313F83C
:10095F008844754500E5442546F582E5453547F55C
:10096F0083853F4675470085460E85470F121ABB94
:10097F0085460E85470F12138E85824085834174FD
:10098F00192548F58274013549F58385460E85474B
:10099F000F121ABB85460E85470F12138E858242A2
:1009AF00858343747A2548F58274013549F583852B
:1009BF00460E85470F121ABB85460E85470F121339
:1009CF008EAA82AB8374C2C39548F874039549F914
:1009DF00E54428F582E54539F58385460E85470FB1
:1009EF00C002C003121ABB85460E85470F12138E25
:1009FF00AC82AD83D003D0027E017F02C3E5409568
:100A0F002FE5419530501385402F854130E526B5B0
:100A1F0031248E318A2F8B30801CC3E52F9542E510
:100A2F00309543501185422F854330E526B5310669
:100A3F008F318C2F8D30853126E4B52602801F74BF
:100A4F0001B526347536807537D2753887753916E6
:100A5F00753A40753B7A753CAB753D1C80327536E7
:100A6F00407537B87538BF753910753A40753B6C9E
:100A7F00753C84753D1580187536407537D57538BA
:100A8F00A475392C753A80753BF4753C56753D3914
:100A9F00852F0E85300F751000751100904240752F
:100AAF00F00FE41213ABAE82AF83A8F0F98E028F72
:100ABF000388048905752A42C3E53A9AE53B9BE50D
:100ACF003C9CE53D9D4047747C252A4041852A2E5C
:100ADF008A828B838CF0EDC002C003C004C005C0B6
:100AEF0006C007C000C0011205E1D001D000D00739
:100AFF00D006D005D004D003D002E5322AFAE53370
:100B0F003BFBE5343CFCE5353DFD052A80AAEEC3F1
:100B1F009532FAEF9533FBE89534FCE99535FD7581
:100B2F002942C3EA9536EB9537EC9538ED95394068
:100B3F0036E5296032152985292E8A828B838CF020
:100B4F00EDC002C003C004C0051205E1D005D004FA
:100B5F00D003D002EAC39532FAEB9533FBEC953410
:100B6F00FCED9535FD80BB852F22853023120F3785
:100B7F001202D0120372C200852F8285308322E5C4
:100B8F008275F008A4FAABF0EA2400F582EB34F09A
:100B9F00F583E090DF09F0EA2400FAEB34F0FB8AEA
:100BAF00828B83A3E090DF0AF08A828B83A3A3E07A
:100BBF0090DF0BF08A828B83A3A3A3E090DF1CF05E
:100BCF008A828B83A3A3A3A3E090DF1DF08A828B7D
:100BDF0083A3A3A3A3A3E090DF1EF0228582271295
:100BEF0005158522828523830206863001047A0447
:100BFF0080027A107401B5270280077402B5270AA4
:100C0F0080047B0180067B1480027B05C002C00339
:100C1F0012111DAC82D003D002BC0103020D24BC03
:100C2F000203020CB4BC03028056BC3C03020CC688
:100C3F00BC3E03020CB7BC4103020CF8BC4D0302CF
:100C4F000D21BC4E02802DBC5103020CD4BC5302AB
:100C5F008050BC54028048BC5502801EBC57028095
:100C6F000DBC5E03020CD4BC8703020CF822758204
:100C7F0000020BEB758201020BEB758202020BEB8C
:100C8F00E4B5270280077401B5270E80067582012F
:100C9F00020BEB758202020BEB758200020BEBD29B
:100CAF000122C20122B201228B047D00EC2524F522
:100CBF0024ED3525F525227C00E524C39BF524E59D
:100CCF00259CF52522AB287C008A057E00ED2BFBA9
:100CDF00EE3CFCC3EB94D0EC648094805006EA2584
:100CEF0028FB80027BD08B2822AB287C008A057ED4
:100CFF0000EBC39DFBEC9EFCC3E49B74808CF06304
:100D0F00F08095F05007E528C39AFA80027A008A9E
:100D1F002822B20022D20222752293752303752452
:100D2F0093752503752602752700C200C201C20202
:100D3F00752800752900752A83120E56120E6A1235
:100D4F000E77120E971204D4758200120BEBAA299C
:100D5F00C3EA952A4003020DF48A82C002120B8E59
:100D6F00D00275E1028A82C0021200DFD002740144
:100D7F00B527117B5E7C018B058C061BBBFF011C0D
:100D8F00ED4E70F3EA75F008A42400FB74F035F013
:100D9F00FC74062BFDE43CFE90DF3AE0FF63078016
:100DAF008D828E83EFF030002A74072BFFE43CF81E
:100DBF008D828E83E0F98F828883E0F54AC3995044
:100DCF00088D828E83E0FD8002AD4A8F828883ED8D
:100DDF00F0800B74072BF582E43CF583E4F075E1AA
:100DEF00040A020D5F120BFA300216120F3790032E
:100DFF00E8120E2FC284120EE2D28412114B020D92
:100E0F0027E522B52408E523B52503020D5D8524CA
:100E1F0082852583120686858224858325020D5DB2
:101B3A000E020E020E02FE020E020E020E020E022B
:101B4A003E020E020E020E020E02FE020E020E02EB
:101B5A000E020E023E020E020E020E020E02FE02DB
:101B6A000E020E020E020E023E020E020E020E02BB
:101B7A000E02FE020E020E020E020E023E020E02BB
:101B8A000E020E020E02FE020E020E020E020E02DB
:101B9A003E020E020E020E020E02FE020E020E029B
:101BAA000E020E023E020E020E020E020E02FE028B
:101BBA000E020E02020E020202020E020202020EBF
:101BCA0002020202FE020202020E020202020E02D7
:101BDA000202020E020202020E020202023E020287
:101BEA0002020E020202020E020202020E020202A7
:101BFA00020E02020202FE020202020E02020202A7
:101C0A000E020202020E020202020E020202023E4A
:101C1A00020202020E020202020E020202020E0276
:101C2A000202020E02020202FE020202020E020276
:101C3A0002020E020202020E020202020E02020256
:101C4A00023E020202020E020202020E0202020216
:101C5A000E0E02020E0202FE02020E02020E020222
:101C6A000E02020E0202FE02020E02020E02020E12
:101C7A0002020E0202FE02020E02020E02020E020E
:101C8A00020E0202FE02020E02020E02020E0202FE
:101C9A000E0202FE02020E02020E02020E02020EE2
:101CAA000202FE02020E02020E02020E02020E02DE
:101CBA0002FE02020E02020E02020E02020E0202CE
:101CCA00FE02020E02020E02020E02020E0202FEC2
:101CDA0002020E02022564002564202025642020C9
:071CEA0025642020256400A1
:100E2F00AA82AB831ABAFF011BC3E49A74808BF0BA
:100E3F0063F08095F0500F7CB07D041CBCFF011D4A
:100E4F00EC4D70F780DE2253BEFBE5BE30E6FB5360
:100E5F00C6B8E5C620E6FB43BE042243F32843FD94
:100E6F001443FE0275FF182275860075C2AA75C558
:100E7F0030228582C1E58630E1FB5386FD22D28286
:100E8F00020E81C282020E81C291900001120E2FBA
:100E9F00D291C2847582E2120E92758224120E9242
:100EAF00758281120E92758260120E927582E61211
:100EBF000E92758200120E9275822F120E9275820B
:100ECF00A1120E927582AF120E927582A4120E921B
:100EDF00D284227582AC120E927582AE120E92756A
:100EEF0082A5020E92AA8274B02AF582120E927413
:100EFF000F5508F582120E92E508C4540FFA740FBD
:100F0F005A2410F582020E92AA82743F5AF5F07499
:100F1F004045F0F582020E92AA8274015AF5F074E0
:100F2F00A645F0F582020E92C284758200120F1749
:100F3F00758200120F277A00EA24F6402175080007
:100F4F008A82C002120EF4D0027B84758200C00226
:100F5F00C003120E8DD003D002DBF00A80DAD284E8
:100F6F0022AA8253027FC3EA648094A04053EA24EA
:100F7F00E0C2D575F00530E704B2D5F404A430D53E
:100F8F000AF42401C5F0F43400C5F0FAABF07C008C
:100F9F00BC05005026EA24F1FDEB341CFEEC2DF5C8
:100FAF0082E43EF583E493F582C002C003C00412CD
:100FBF000E8DD004D003D0020C80D5758200020EA6
:020FCF008D2271
:101CF100000000000000005E0000000E000E002841
:101D01007C287C2808547C54202610086400285420
:101D110028400000000E0000003C42000000423C50
:101D21000000005438540010107C10100080602016
:101D31000010101010000060600000201008040066
:101D4100003C423C0000447E40004462524C002270
:101D51004A4A360018147E10002E4A4A32003C4A84
:101D61004A300002621A0600344A4A34000C5252C8
:101D71003C00006C6C0000806C2C000000102844BA
:101D810000282828280000442810000004520C00D4
:101D91003C425A1C007C12127C007E4A4A34003CB0
:101DA100424224007E42423C007E4A4A42007E0A70
:101DB1000A02003C425274007E08087E0000427E06
:101DC10042002040403E007E182442007E404040B8
:101DD100007E0C0C7E007E0C307E003C42423C00BA
:101DE1007E12120C003C6242BC007E12324C002476
:101DF1004A52240000027E02003E40403E001E6026
:101E0100601E007E30307E006618186600000E707D
:101E11000E0062524A4600007E4242000408102031
:101E2100000042427E0000040204004040404000A5
:101E3100000204000030482878007E484830003015
:101E4100484800003048487E003068581000107C37
:101E510012040050A8A898007E0808700000487A73
:101E610040000040807A007E1028400000427E4001
:101E71000078101870007808087000304848300069
:101E8100F848483000304848F800780808100050F9
:101E910058682800083E4840003840407800003823
:101EA1004038007860607800483030480018A04021
:101EB1003800486858480000083C420000007E0095
:061EC1000000423C080095
:100FD10053FD3D53FE034380C24390FC7A007B00E6
:100FE100BB080040030210EFEBFC24F84057EB2B49
:100FF1002B900FF67302100E02101002101802103F
:1010010020021028021030021038021040803643AE
:10101100FD025380FD802E43FE045390FB80264346
:10102100FE085390F7801E43FE105390EF80164345
:10103100FE205390DF800E43FE405390BF80064355
:10104100FE8053907FAD807E00EDF4FDEEF4FEED69
:1010510030E1027C01AD907E00EDF4FDEEF4FEED99
:1010610030E2027C02AD907E00EDF4FDEEF4FEED87
:1010710030E3027C03AD907E00EDF4FDEEF4FEED75
:1010810030E4027C04AD907E00EDF4FDEEF4FEED63
:1010910030E5027C05AD907E00EDF4FDEEF4FEED51
:1010A10030E6027C06AD907E00EDF4FDEEF4FEED3F
:1010B10030E7027C07AD807E00EDF4FDEEF4FEED3D
:1010C10030E6027C08AD807E00EDF4FDEEF4FEED2D
:1010D10030E7027C09ECB50302800DEA75F00AA441
:1010E1002C901EC793F582220B8B02020FE17582B1
:1010F1000022120FD1AA82C002120FD1AB82D002FC
:10110100EAB503028007120FD1AA8280EA53FD3D9E
:1011110053FE034380C24390FC8A82221210F3E5FE
:1011210082FAB5090280048A0980027A008A822241
:101EC70000004F4B4E4D0150000000005947432082
:101ED7003C2C033E00000051574552545549000021
:101EE700000041534446484A0000000000825A5807
:101EF7005642000000000000838485860000000031
:101F070000000002875E00000000000000000A4C8D
:10113100538ABFC2EB758D40439A10438C02D2AFE4
:1011410022538ABFC2EB53BEFC3285D50A85D40B2C
:1011510090F4207407F090F4217407F090F4227455
:1011610007F090F4237407F090F4247407F090F4DE
:10117100257407F090F4267404F090F427E4F090BD
:10118100F428F090F42974DFF090F42A74BEF09002
:10119100F42BE4F090F42C7407F090F42D7420F00B
:1011A10090F42E7442F053BEFBE5BE30E5FBAAC6B7
:1011B10074F85AF5F0744145F0F5C6E5C630E6FB22
:1011C10043BE0412113185D50A85D40B43D6817AE9
:1011D100207BF48B0290F427EAF07A207BF490F4E0
:1011E10028EAF07A277BF48BD57A277BF48AD475A9
:1011F100D60143C70243BE07000000E5BE54037099
:101201000302120D75D701004387010053C7FD8505
:101211000AD5850BD475D601E5BE30E5FB227A10DF
:10122100E4FBFCE58225E0F582E58333F583EB33CE
:10123100FBEC33FCEB950EF5F0EC950F4006FCABA7
:10124100F0438201DADD221212EBBC0003021487A3
:10125100EF60FA30D502B2D1E583B4FF0302149DE9
:10126100E582B4FF0302149D258340072482400BCD
:10127100021487248314500302149DF582EA8DF031
:10128100A4A8F0EA8EF0A428F8E435F0F9EB8DF08B
:10129100A428E935F0F9E433CA8FF0A429F9EA3535
:1012A100F0FAEBF88EF0A429F9EA35F0FAE433FB11
:1012B100EC8DF0A429F9EA35F0FAE43BFBE88FF074
:1012C100A42AFAEB35F0FBE433CCFD8EF0A42AFA24
:1012D100EB35F0FBE43CFCED8FF0A42BFBEC35F09F
:1012E100FC20E703121319021466AA82AB83A2F74A
:1012F1003392D16002D2F7F582ACF0E58124F9F89E
:10130100E6FD08E6FE0886F008E6A2F73392D5600E
:0813110002D2F7F583AFF022D0
:0600B200E478FFF6D8FD22
:101319007804EC700DC9CACBFCE58224F8F582D8B3
:10132900F122782020E7111582C3E933F9EA33FA6B
:09133900EB33FBEC33FCD8EC2291
:100090007900E94400601B7A00901F22782F759345
:1000A000F4E493F2A308B800020593D9F4DAF275E8
:0200B00093FFBC
:10134200FCABF0AA83A982749EC2D1F58212131952
:101352000214667F9E12137C30D103021487C3EFFE
:101362009582500974FFF5F0F583F5822279001217
:101372001AF389828A838BF0EC22AA82AB83A2F7CA
:101382003392D16002D2F7F582ACF022E582850E6B
:10139200F0A4C582C0F0850FF0A4D0F025F0C5837B
:1013A200850EF0A42583F58322AAF0FBE582850E43
:1013B200F0A4FCADF0E583850EF0A42DFDE435F03C
:1013C200FEE582850FF0A42DFDE5F03EFEE433FF3D
:1013D200EA850EF0A42EFEE5F03FFFE583850FF0CF
:1013E200A42EFEE5F03FFFE5828510F0A42EFEE577
:1013F200F03FFFEB850EF0A42FFFEA850FF0A42F3C
:10140200FFE5838510F0A42FFFE5828511F0A42F5C
:101412008EF08D838C8222E50E450F60467A01E5BF
:101422000E25E0F50EE50F334012F50FE582950E1D
:10143200E583950F40030A80E6C3E50F13F50FE538
:101442000E13F50EC3E582950EF5F0E583950F4078
:1014520005F58385F082C3E50F13F50FE50E13F54D
:041462000EDAE1229B
:1000B8007800E84400600A79007593F0E4F309D801
:1000C800FC782FE84404600C790590F000E4F0A374
:0400D800D8FCD9FA7D
:10146600B98003EA13B34010EA2401FAE43BFBE433
:101476003CFC50047C800582BC000EBB000BBA000D
:1014860008E4F5F0F583F58222A2D1E582138CF00B
:1014960092F78B838A8222E4F583F58275F080F4D5
:1014A600A2D11322E4F583F58275F0C0747F22C0C1
:1014B6000D85810D120F70D00D2285825A85835BB2
:1014C60085F05CE4F557F558F559850C5D9014B533
:1014D600021599C00D85810DE50D24FBF55DE4F53A
:1014E60057F558F559E50D24FBF8865A08865B082A
:1014F600865C9014B5121599D00D22AA82C04DC0F3
:101506004EC04F7418C0E07415C0E0C04BC04C8A82
:1015160082221581158115810555E4B555020556BA
:1015260022AA8274302AFA24C6500A74072AFA308C
:1015360003034302208A82021501E582FAC4540F8E
:10154600F582C002121527D002740F5AF5820215D1
:101556002785820EAB50AC51AD52AE53AF54750FCA
:1015660020EF2FFFEE235401FA4207EB2BFBEC335F
:10157600FCED33FDEE33FEC3EF950E4008EFC39549
:101586000EFF430301D50FD98B508C518D528E53CC
:101596008F542285824B85834C85574D85584E85C1
:1015A600594FE4F555F556AA5AAB5BAC5C8A828B6B
:1015B600838CF0121A9FFD74012AF55AE43BF55B01
:1015C6008C5CEDFA7003021A80BA25028003021AB7
:1015D60078C204C205C206C207C208C209C20AC24C
:1015E6000B755E00755F007DFFAE5AAF5BAB5C8E20
:1015F600828F838BF0121A9FFAA3AE82AF838E5A24
:101606008F5B8B5CBA25078A8212150180998A0442
:10161600BC3000402A8A04EC24C64023BDFF13E5F3
:101626005F75F00AA4FCEA24D02CF55F70C1D205E0
:1016360080BDED75F00AA4FCEA24D02CFD80B0BA7A
:101646002E07BDFFAA7D0080A68A04BC6100400E5D
:101656008A04EC248540075302DFD2038002C203CA
:10166600BA20028055BA2B02804BBA2D028041BAAD
:101676004202804BBA43028050BA4403021827BA8A
:10168600460302183DBA4903021827BA4C028034B1
:10169600BA4F0302182EBA50030217BEBA5302807D
:1016A6004CBA5503021833BA5803021838021841C7
:1016B600D2040215F5D2060215F5D2070215F5D2A7
:1016C600090215F5D20A0215F530090AE55D14F886
:1016D600885D8602800FE55D24FEF8885D86030836
:1016E6008604188B028A8212150102184AE55D24C7
:1016F600FDF8885D860308860408860618188B5050
:101706008C518E528B828C838EF0C005121A87AB59
:1017160082AC83D005BDFF028B0520042CC3EB955C
:101726005F5026E55FC39BF55FAC5F8C061C8C5F44
:10173600EE6014758220C003C004C005121501D0E6
:1017460005D004D00380E48C5F8D048550828551DA
:10175600838552F0121A9FFDFA602F8C051CC37404
:10176600808DF063F08095F050208A82C003C0041B
:10177600121501D004D003AD50AE51AF520DBD00CD
:10178600010E8D508E518F5280C120040302184ADB
:10179600C3EB955F400302184AE55FC39BF55FAC58
:1017A6005F8C051C8C5FED7003021848758220C0A3
:1017B60004121501D00480E9E55D24FDF8885D86F4
:1017C6000508860608860718188D508E518F52AD6B
:1017D60052BD800040047A438014BD600040047A04
:1017E60050800BBD400040047A4980027A588A82B4
:1017F600C00212150175823A121501758230121552
:1018060001758278121501D002BA4902800BBA50CE
:10181600028006855182121540855082121540803D
:1018260023D208755E0A801C755E088017755E0AED
:101836008012755E10800DD20B80098A8212150106
:1018460080028C5F300B5AE55D24FCF8885D8604C7
:101856000886050886060886071818188C508D51C4
:101866008E528F5375501775511F75528085506172
:1018760085516285526374012561FFE43562FCADD2
:10188600638F508C518D528561828562838563F0AA
:10189600121A9FFCFA70030215AD8A821215018096
:1018A600CCE55E70030215AD75601730092BE55D5A
:1018B60014F8885DE6FD3395E0FEFFFC8D508E51F1
:1018C6008F528C5320085EAC507D007E007F008CCA
:1018D600508D518E528F53804C300A1FE55D24FC8B
:1018E600F8885D860408860508860608860718189F
:1018F600188C508D518E528F53802AE55D24FEF848
:10190600885D860408860518ED3395E0FEFF8C5049
:101916008D518E528F5320080CAC50AD517E007FF6
:10192600008E528F53300825AC50AD51AE52E55360
:10193600FF30E717C3E49CFCE49DFDE49EFEE49FB4
:10194600FF8C508D518E528F538002C208D20CA844
:10195600607C00755400855E82C004C00012155775
:10196600D000D004200C0DE554C4FDE6FE4DF6185B
:1019760088608002A6540C8C03B20CE55045514594
:1019860052455370CE88608C03E55F7003755F0126
:10199600200524200421EB04FCAD5FC3EC9D50150B
:1019A600758220C003C004C005121501D005D004FD
:1019B600D0031D80E68D5F30080E75822DC00312A0
:1019C6001501D003155F8023EB602030060E75826B
:1019D6002BC003121501D003155F800F30070C755D
:1019E6008220C003121501D003155F200424AC5FCA
:1019F6008C051C8C5FC3EB9D502B3005047D30801D
:101A0600027D208D82C003C004121501D004D003CC
:101A160080DEC3EB955F5008E55FC39BF55F8007EB
:101A2600755F0080028C5FA8608B041BEC6026B299
:101A36000C200C0A08E6C4540FFC8C54800786045C
:101A4600740F5CF554855482C003C000121527D06C
:101A560000D00380D42004030215ADAB5F8B041BBA
:101A6600EC70030215AD758220C003121501D00378
:101A760080EB8A821215010215AD85558285568343
:011A8600223D
:0B1F17003C4E4F20464C4F41543E0012
:101A8700AA82AB83121A9F6003A380F8C3E5829AE8
:081A9700F582E5839BF5832233
:0D008300758163121B36E582600302007E6A
:101A9F0020F71430F6148883A88220F507E6A88370
:101AAF0075830022E280F7E49322E022C2D5E5831A
:101ABF0030E70DD2D5E4C39582F582E49583F583A3
:101ACF00E50F30E70DB2D5E4C3950EF50EE4950F93
:101ADF00F50F12121F30D50BE4C39582F582E495F2
:101AEF0083F583226040F82582500274FFF582E867
:101AFF0024F8501ECCCBCAF9E4CC24F85014CBCA2E
:101B0F00F9E4CB24F8500BCAF9E4CA24F85003794E
:101B1F00002224086010F8C3EC13FCEB13FBEA134C
:0B1B2F00FAE913F9D8F12275820022B8
:00000001FF
