:03F0000002F00813
:03F0610002F003B7
:05F0030012F0DE80FEAA
:0DF0640090DF10E090FDF0F090DF0FE090E5
:0EF07100FDF1F090DF0EE090FDF2F090DF0D6B
:0EF07F00E090FDF3F090DF0CE090FDF4F02245
:0DF08D0090FDF0E090DF10F090FDF1E090BC
:0EF09A00DF0FF090FDF2E090DF0EF090FDF33E
:0EF0A800E090DF0DF090FDF4E090DF0CF02220
:01F0B6002237
:04F0B700AA82AB83FB
:05F0BB001ABAFF011B61
:0EF0C000C3E49A74808BF063F08095F0500FDB
:04F0CE007CB07D0491
:05F0D2001CBCFF011D44
:06F0D700EC4D70F780DE35
:01F0DD002210
:09F0DE0090FE00E0C2A812F064EB
:03F0E70075E104CC
:0EF0EA0090DF3BE0FABA01F812F08D12F1143B
:09F0F80012F0B675E10475E103A4
:0EF1010090DF3BE0FA53021FBA13F590000AAC
:05F10F0012F0B780D3EF
:02F114007A007F
:03F11600BA4000FC
:0DF11900500B8A827583FE74FFF00A80F0AF
:05F12600C2A875E10420
:0BF12B0090DF3BE0FABA01F875E1024A
:0DF1360090DF3BE0FABA0DF890DF02E090A8
:05F14300FE00F07A015E
:03F14800BA030007
:02F14B0050135F
:05F14D0010890280FBA7
:0EF152008A030A8B827583FEE5D9FBF080E804
:04F1600075E104222F
:06F03700E478FFF6D8FDAD
:08F015007900E94400601B7A58
:05F01D000090F168788D
:03F02200007593E3
:0AF0250000E493F2A308B80002050E
:08F02F0093D9F4DAF27593FFA6
:08F03D007800E84400600A7944
:03F04500007593C0
:06F0480000E4F309D8FC0E
:08F04E007800E84400600C7931
:0BF0560000900000E4F0A3D8FCD9FA01
:03F0080075810708
:0AF00B0012F164E582600302F003D5
:04F16400758200228E
:00000001FF
